{
  "contractName": "Provenance",
  "abi": [
    {
      "inputs": [],
      "stateMutability": "nonpayable",
      "type": "constructor"
    },
    {
      "inputs": [
        {
          "internalType": "string",
          "name": "_name",
          "type": "string"
        },
        {
          "internalType": "uint256",
          "name": "_phoneNo",
          "type": "uint256"
        },
        {
          "internalType": "string",
          "name": "_cityState",
          "type": "string"
        },
        {
          "internalType": "string",
          "name": "_country",
          "type": "string"
        }
      ],
      "name": "addProducer",
      "outputs": [
        {
          "internalType": "bool",
          "name": "",
          "type": "bool"
        }
      ],
      "stateMutability": "nonpayable",
      "type": "function"
    },
    {
      "inputs": [
        {
          "internalType": "address",
          "name": "_producer",
          "type": "address"
        }
      ],
      "name": "removeProducer",
      "outputs": [
        {
          "internalType": "bool",
          "name": "",
          "type": "bool"
        }
      ],
      "stateMutability": "nonpayable",
      "type": "function"
    },
    {
      "inputs": [
        {
          "internalType": "address",
          "name": "_producer",
          "type": "address"
        }
      ],
      "name": "findProducer",
      "outputs": [
        {
          "internalType": "string",
          "name": "",
          "type": "string"
        },
        {
          "internalType": "uint256",
          "name": "",
          "type": "uint256"
        },
        {
          "internalType": "string",
          "name": "",
          "type": "string"
        },
        {
          "internalType": "string",
          "name": "",
          "type": "string"
        },
        {
          "internalType": "bool",
          "name": "",
          "type": "bool"
        }
      ],
      "stateMutability": "view",
      "type": "function",
      "constant": true
    },
    {
      "inputs": [
        {
          "internalType": "address",
          "name": "_producer",
          "type": "address"
        }
      ],
      "name": "certifyProducer",
      "outputs": [
        {
          "internalType": "bool",
          "name": "",
          "type": "bool"
        }
      ],
      "stateMutability": "nonpayable",
      "type": "function"
    },
    {
      "inputs": [
        {
          "internalType": "string",
          "name": "_serialNo",
          "type": "string"
        },
        {
          "internalType": "string",
          "name": "_name",
          "type": "string"
        },
        {
          "internalType": "int256[]",
          "name": "_locationData",
          "type": "int256[]"
        }
      ],
      "name": "addProduct",
      "outputs": [
        {
          "internalType": "bool",
          "name": "",
          "type": "bool"
        }
      ],
      "stateMutability": "nonpayable",
      "type": "function"
    },
    {
      "inputs": [],
      "name": "showOwner",
      "outputs": [
        {
          "internalType": "address",
          "name": "",
          "type": "address"
        }
      ],
      "stateMutability": "view",
      "type": "function",
      "constant": true
    },
    {
      "inputs": [
        {
          "internalType": "string",
          "name": "_serialNo",
          "type": "string"
        }
      ],
      "name": "removeProduct",
      "outputs": [
        {
          "internalType": "bool",
          "name": "",
          "type": "bool"
        }
      ],
      "stateMutability": "nonpayable",
      "type": "function"
    },
    {
      "inputs": [
        {
          "internalType": "string",
          "name": "_serialNo",
          "type": "string"
        }
      ],
      "name": "findProduct",
      "outputs": [
        {
          "internalType": "address",
          "name": "",
          "type": "address"
        },
        {
          "internalType": "string",
          "name": "",
          "type": "string"
        },
        {
          "internalType": "int256[]",
          "name": "",
          "type": "int256[]"
        },
        {
          "internalType": "uint256",
          "name": "",
          "type": "uint256"
        }
      ],
      "stateMutability": "view",
      "type": "function",
      "constant": true
    }
  ],
  "bytecode": "0x608060405234801561001057600080fd5b50336000806101000a81548173ffffffffffffffffffffffffffffffffffffffff021916908373ffffffffffffffffffffffffffffffffffffffff160217905550611bcf806100606000396000f3fe608060405234801561001057600080fd5b50600436106100885760003560e01c8063a5bfd7c91161005b578063a5bfd7c914610416578063c7a69e0b14610621578063ded94688146107c8578063e2d5d3221461081257610088565b80633f185b6c1461008d57806353efc828146100e95780635a09c841146101455780639726dd1914610343575b600080fd5b6100cf600480360360208110156100a357600080fd5b81019080803573ffffffffffffffffffffffffffffffffffffffff1690602001909291905050506109c8565b604051808215151515815260200191505060405180910390f35b61012b600480360360208110156100ff57600080fd5b81019080803573ffffffffffffffffffffffffffffffffffffffff169060200190929190505050610b06565b604051808215151515815260200191505060405180910390f35b6103296004803603606081101561015b57600080fd5b810190808035906020019064010000000081111561017857600080fd5b82018360208201111561018a57600080fd5b803590602001918460018302840111640100000000831117156101ac57600080fd5b91908080601f016020809104026020016040519081016040528093929190818152602001838380828437600081840152601f19601f8201169050808301925050505050505091929192908035906020019064010000000081111561020f57600080fd5b82018360208201111561022157600080fd5b8035906020019184600183028401116401000000008311171561024357600080fd5b91908080601f016020809104026020016040519081016040528093929190818152602001838380828437600081840152601f19601f820116905080830192505050505050509192919290803590602001906401000000008111156102a657600080fd5b8201836020820111156102b857600080fd5b803590602001918460208302840111640100000000831117156102da57600080fd5b919080806020026020016040519081016040528093929190818152602001838360200280828437600081840152601f19601f820116905080830192505050505050509192919290505050610c10565b604051808215151515815260200191505060405180910390f35b6103fc6004803603602081101561035957600080fd5b810190808035906020019064010000000081111561037657600080fd5b82018360208201111561038857600080fd5b803590602001918460018302840111640100000000831117156103aa57600080fd5b91908080601f016020809104026020016040519081016040528093929190818152602001838380828437600081840152601f19601f820116905080830192505050505050509192919290505050610f6b565b604051808215151515815260200191505060405180910390f35b6106076004803603608081101561042c57600080fd5b810190808035906020019064010000000081111561044957600080fd5b82018360208201111561045b57600080fd5b8035906020019184600183028401116401000000008311171561047d57600080fd5b91908080601f016020809104026020016040519081016040528093929190818152602001838380828437600081840152601f19601f82011690508083019250505050505050919291929080359060200190929190803590602001906401000000008111156104ea57600080fd5b8201836020820111156104fc57600080fd5b8035906020019184600183028401116401000000008311171561051e57600080fd5b91908080601f016020809104026020016040519081016040528093929190818152602001838380828437600081840152601f19601f8201169050808301925050505050505091929192908035906020019064010000000081111561058157600080fd5b82018360208201111561059357600080fd5b803590602001918460018302840111640100000000831117156105b557600080fd5b91908080601f016020809104026020016040519081016040528093929190818152602001838380828437600081840152601f19601f820116905080830192505050505050509192919290505050611143565b604051808215151515815260200191505060405180910390f35b6106636004803603602081101561063757600080fd5b81019080803573ffffffffffffffffffffffffffffffffffffffff16906020019092919050505061136e565b6040518080602001868152602001806020018060200185151515158152602001848103845289818151815260200191508051906020019080838360005b838110156106bb5780820151818401526020810190506106a0565b50505050905090810190601f1680156106e85780820380516001836020036101000a031916815260200191505b50848103835287818151815260200191508051906020019080838360005b83811015610721578082015181840152602081019050610706565b50505050905090810190601f16801561074e5780820380516001836020036101000a031916815260200191505b50848103825286818151815260200191508051906020019080838360005b8381101561078757808201518184015260208101905061076c565b50505050905090810190601f1680156107b45780820380516001836020036101000a031916815260200191505b509850505050505050505060405180910390f35b6107d06116b7565b604051808273ffffffffffffffffffffffffffffffffffffffff1673ffffffffffffffffffffffffffffffffffffffff16815260200191505060405180910390f35b6108cb6004803603602081101561082857600080fd5b810190808035906020019064010000000081111561084557600080fd5b82018360208201111561085757600080fd5b8035906020019184600183028401116401000000008311171561087957600080fd5b91908080601f016020809104026020016040519081016040528093929190818152602001838380828437600081840152601f19601f8201169050808301925050505050505091929192905050506116e0565b604051808573ffffffffffffffffffffffffffffffffffffffff1673ffffffffffffffffffffffffffffffffffffffff1681526020018060200180602001848152602001838103835286818151815260200191508051906020019080838360005b8381101561094757808201518184015260208101905061092c565b50505050905090810190601f1680156109745780820380516001836020036101000a031916815260200191505b50838103825285818151815260200191508051906020019060200280838360005b838110156109b0578082015181840152602081019050610995565b50505050905001965050505050505060405180910390f35b60008060009054906101000a900473ffffffffffffffffffffffffffffffffffffffff1673ffffffffffffffffffffffffffffffffffffffff163373ffffffffffffffffffffffffffffffffffffffff1614610a6f576040517f08c379a000000000000000000000000000000000000000000000000000000000815260040180806020018281038252602d815260200180611b37602d913960400191505060405180910390fd5b600160008373ffffffffffffffffffffffffffffffffffffffff1673ffffffffffffffffffffffffffffffffffffffff16815260200190815260200160002060008082016000610abf91906119b6565b6001820160009055600282016000610ad791906119b6565b600382016000610ae791906119b6565b6004820160006101000a81549060ff0219169055505060019050919050565b60008060009054906101000a900473ffffffffffffffffffffffffffffffffffffffff1673ffffffffffffffffffffffffffffffffffffffff163373ffffffffffffffffffffffffffffffffffffffff1614610bad576040517f08c379a000000000000000000000000000000000000000000000000000000000815260040180806020018281038252602d815260200180611b37602d913960400191505060405180910390fd5b60018060008473ffffffffffffffffffffffffffffffffffffffff1673ffffffffffffffffffffffffffffffffffffffff16815260200190815260200160002060040160006101000a81548160ff02191690831515021790555060019050919050565b60008073ffffffffffffffffffffffffffffffffffffffff166002856040518082805190602001908083835b60208310610c5f5780518252602082019150602081019050602083039250610c3c565b6001836020036101000a038019825116818451168082178552505050505050905001915050908152602001604051809103902060000160009054906101000a900473ffffffffffffffffffffffffffffffffffffffff1673ffffffffffffffffffffffffffffffffffffffff16148015610cdb57506000845114155b8015610d335750600160003373ffffffffffffffffffffffffffffffffffffffff1673ffffffffffffffffffffffffffffffffffffffff16815260200190815260200160002060040160009054906101000a900460ff165b15610f5f57336002856040518082805190602001908083835b60208310610d6f5780518252602082019150602081019050602083039250610d4c565b6001836020036101000a038019825116818451168082178552505050505050905001915050908152602001604051809103902060000160006101000a81548173ffffffffffffffffffffffffffffffffffffffff021916908373ffffffffffffffffffffffffffffffffffffffff160217905550826002856040518082805190602001908083835b60208310610e1a5780518252602082019150602081019050602083039250610df7565b6001836020036101000a03801982511681845116808217855250505050505090500191505090815260200160405180910390206001019080519060200190610e639291906119fe565b50816002856040518082805190602001908083835b60208310610e9b5780518252602082019150602081019050602083039250610e78565b6001836020036101000a03801982511681845116808217855250505050505090500191505090815260200160405180910390206002019080519060200190610ee4929190611a7e565b50426002856040518082805190602001908083835b60208310610f1c5780518252602082019150602081019050602083039250610ef9565b6001836020036101000a03801982511681845116808217855250505050505090500191505090815260200160405180910390206003018190555060019050610f64565b600090505b9392505050565b6000816002816040518082805190602001908083835b60208310610fa45780518252602082019150602081019050602083039250610f81565b6001836020036101000a038019825116818451168082178552505050505050905001915050908152602001604051809103902060000160009054906101000a900473ffffffffffffffffffffffffffffffffffffffff1673ffffffffffffffffffffffffffffffffffffffff163373ffffffffffffffffffffffffffffffffffffffff161461107e576040517f08c379a0000000000000000000000000000000000000000000000000000000008152600401808060200182810382526036815260200180611b646036913960400191505060405180910390fd5b6002836040518082805190602001908083835b602083106110b45780518252602082019150602081019050602083039250611091565b6001836020036101000a0380198251168184511680821785525050505050509050019150509081526020016040518091039020600080820160006101000a81549073ffffffffffffffffffffffffffffffffffffffff021916905560018201600061111f91906119b6565b60028201600061112f9190611acb565b600382016000905550506001915050919050565b600080600160003373ffffffffffffffffffffffffffffffffffffffff1673ffffffffffffffffffffffffffffffffffffffff1681526020019081526020016000206000018054600181600116156101000203166002900490501480156111ac57506000855114155b156113615784600160003373ffffffffffffffffffffffffffffffffffffffff1673ffffffffffffffffffffffffffffffffffffffff16815260200190815260200160002060000190805190602001906112079291906119fe565b5083600160003373ffffffffffffffffffffffffffffffffffffffff1673ffffffffffffffffffffffffffffffffffffffff1681526020019081526020016000206001018190555082600160003373ffffffffffffffffffffffffffffffffffffffff1673ffffffffffffffffffffffffffffffffffffffff16815260200190815260200160002060020190805190602001906112a59291906119fe565b5081600160003373ffffffffffffffffffffffffffffffffffffffff1673ffffffffffffffffffffffffffffffffffffffff16815260200190815260200160002060030190805190602001906112fc9291906119fe565b506000600160003373ffffffffffffffffffffffffffffffffffffffff1673ffffffffffffffffffffffffffffffffffffffff16815260200190815260200160002060040160006101000a81548160ff02191690831515021790555060019050611366565b600090505b949350505050565b606060006060806000600160008773ffffffffffffffffffffffffffffffffffffffff1673ffffffffffffffffffffffffffffffffffffffff168152602001908152602001600020600001600160008873ffffffffffffffffffffffffffffffffffffffff1673ffffffffffffffffffffffffffffffffffffffff16815260200190815260200160002060010154600160008973ffffffffffffffffffffffffffffffffffffffff1673ffffffffffffffffffffffffffffffffffffffff168152602001908152602001600020600201600160008a73ffffffffffffffffffffffffffffffffffffffff1673ffffffffffffffffffffffffffffffffffffffff168152602001908152602001600020600301600160008b73ffffffffffffffffffffffffffffffffffffffff1673ffffffffffffffffffffffffffffffffffffffff16815260200190815260200160002060040160009054906101000a900460ff16848054600181600116156101000203166002900480601f0160208091040260200160405190810160405280929190818152602001828054600181600116156101000203166002900480156115655780601f1061153a57610100808354040283529160200191611565565b820191906000526020600020905b81548152906001019060200180831161154857829003601f168201915b50505050509450828054600181600116156101000203166002900480601f0160208091040260200160405190810160405280929190818152602001828054600181600116156101000203166002900480156116015780601f106115d657610100808354040283529160200191611601565b820191906000526020600020905b8154815290600101906020018083116115e457829003601f168201915b50505050509250818054600181600116156101000203166002900480601f01602080910402602001604051908101604052809291908181526020018280546001816001161561010002031660029004801561169d5780601f106116725761010080835404028352916020019161169d565b820191906000526020600020905b81548152906001019060200180831161168057829003601f168201915b505050505091509450945094509450945091939590929450565b60008060009054906101000a900473ffffffffffffffffffffffffffffffffffffffff16905090565b600060608060006002856040518082805190602001908083835b6020831061171d57805182526020820191506020810190506020830392506116fa565b6001836020036101000a038019825116818451168082178552505050505050905001915050908152602001604051809103902060000160009054906101000a900473ffffffffffffffffffffffffffffffffffffffff166002866040518082805190602001908083835b602083106117aa5780518252602082019150602081019050602083039250611787565b6001836020036101000a03801982511681845116808217855250505050505090500191505090815260200160405180910390206001016002876040518082805190602001908083835b6020831061181657805182526020820191506020810190506020830392506117f3565b6001836020036101000a03801982511681845116808217855250505050505090500191505090815260200160405180910390206002016002886040518082805190602001908083835b60208310611882578051825260208201915060208101905060208303925061185f565b6001836020036101000a038019825116818451168082178552505050505050905001915050908152602001604051809103902060030154828054600181600116156101000203166002900480601f01602080910402602001604051908101604052809291908181526020018280546001816001161561010002031660029004801561194e5780601f106119235761010080835404028352916020019161194e565b820191906000526020600020905b81548152906001019060200180831161193157829003601f168201915b50505050509250818054806020026020016040519081016040528092919081815260200182805480156119a057602002820191906000526020600020905b81548152602001906001019080831161198c575b5050505050915093509350935093509193509193565b50805460018160011615610100020316600290046000825580601f106119dc57506119fb565b601f0160209004906000526020600020908101906119fa9190611aec565b5b50565b828054600181600116156101000203166002900490600052602060002090601f016020900481019282601f10611a3f57805160ff1916838001178555611a6d565b82800160010185558215611a6d579182015b82811115611a6c578251825591602001919060010190611a51565b5b509050611a7a9190611aec565b5090565b828054828255906000526020600020908101928215611aba579160200282015b82811115611ab9578251825591602001919060010190611a9e565b5b509050611ac79190611b11565b5090565b5080546000825590600052602060002090810190611ae99190611b11565b50565b611b0e91905b80821115611b0a576000816000905550600101611af2565b5090565b90565b611b3391905b80821115611b2f576000816000905550600101611b17565b5090565b9056fe596f7520617265206e6f7420617574686f72697a656420746f20706572666f726d207468697320616374696f6e596f752063616e27742064656c65746520746869732070726f647563743a596f7520617265206e6f74207468652070726f6475636572a2646970667358221220e84f07caf452e30c3811a2d9ab6d8c2e3fe97aaaaae73d200b14b2d5edaef17664736f6c63430006000033",
  "source": "//SPDX-License-Identifier:UNLICENSED\npragma solidity ^0.6.0;\n\n\n\ncontract Provenance\n{\n    address admin;\n    struct Producer\n    {\n        string name;\n        uint phoneNo;\n        string cityState;\n        string country;\n        bool certified;\n    }\n    struct Product\n    {\n        address producer;\n        string name;\n        int[] locationData;\n        uint timeStamp;\n    }\n    mapping (address => Producer) producers;\n    mapping (string => Product) products;\n\n    constructor() public\n    {\n        admin=msg.sender;\n    }\n\n    modifier onlyAdmin()\n    {\n        require(msg.sender==admin, \"You are not authorized to perform this action\");\n        _;\n    }\n\n    modifier onlyProducer(string memory _serialNo) \n    { \n        require (msg.sender==products[_serialNo].producer,\"You can't delete this product:You are not the producer\"); \n        _; \n    }\n    \n\n    function addProducer(string memory _name,uint _phoneNo,string memory _cityState,string memory  _country) public returns (bool)\n    {\n        if(bytes(producers[msg.sender].name).length==0 && bytes(_name).length!=0)\n        {\n            producers[msg.sender].name=_name;\n            producers[msg.sender].phoneNo=_phoneNo;\n            producers[msg.sender].cityState=_cityState;\n            producers[msg.sender].country=_country;\n            producers[msg.sender].certified=false;\n            return true;\n        }\n        else\n        {\n            return false;\n        }\n    }\n\n    function removeProducer(address _producer) onlyAdmin public returns(bool)\n    {\n        delete producers[_producer];\n        return true;\n    }\n\n    function findProducer(address _producer)public  view returns(string memory,uint,string memory,string memory,bool)\n    {\n        return(producers[_producer].name,producers[_producer].phoneNo,producers[_producer].cityState,producers[_producer].country,producers[_producer].certified);\n    }\n\n    function certifyProducer(address _producer) onlyAdmin public returns (bool)\n    {\n        producers[_producer].certified=true;\n        return true;\n    }\n\n    function addProduct(string memory _serialNo,string memory _name,int[] memory _locationData)public  returns (bool)\n    {\n        if(products[_serialNo].producer==address(0x0) && bytes(_serialNo).length!=0 && producers[msg.sender].certified)\n        {\n            products[_serialNo].producer=msg.sender;\n            products[_serialNo].name=_name;\n            products[_serialNo].locationData=_locationData;\n            products[_serialNo].timeStamp=block.timestamp;\n            return (true);\n        }\n        else\n        {\n            return (false);\n        }\n    }\n    function showOwner() public view returns(address)\n    {\n        return admin;\n    }\n\n    function removeProduct(string memory _serialNo) onlyProducer(_serialNo) public returns(bool)\n\n\n    {\n        delete products[_serialNo];\n        return true;\n    }\n    function findProduct(string memory _serialNo) public view returns(address,string memory,int[] memory,uint)\n    {\n        return(products[_serialNo].producer,products[_serialNo].name,products[_serialNo].locationData,products[_serialNo].timeStamp);\n    }\n}\n",
  "sourcePath": "/home/kislay/WORKSPACE/Supply-Chain-Management/contracts/Provenance.sol",
  "compiler": {
    "name": "solc",
    "version": "0.6.0+commit.26b70077.Emscripten.clang"
  },
  "schemaVersion": "3.2.5",
  "updatedAt": "2020-11-07T05:41:13.080Z",
  "networkType": "ethereum",
  "devdoc": {
    "methods": {}
  },
  "userdoc": {
    "methods": {}
  }
}