{
  "contractName": "Tracking",
  "abi": [
    {
      "inputs": [],
      "stateMutability": "nonpayable",
      "type": "constructor"
    },
    {
      "anonymous": false,
      "inputs": [
        {
          "indexed": false,
          "internalType": "string",
          "name": "_message",
          "type": "string"
        }
      ],
      "name": "Failure",
      "type": "event"
    },
    {
      "anonymous": false,
      "inputs": [
        {
          "indexed": false,
          "internalType": "string",
          "name": "_message",
          "type": "string"
        },
        {
          "indexed": false,
          "internalType": "address",
          "name": "_from",
          "type": "address"
        },
        {
          "indexed": false,
          "internalType": "address",
          "name": "_to",
          "type": "address"
        },
        {
          "indexed": false,
          "internalType": "uint256",
          "name": "_amount",
          "type": "uint256"
        }
      ],
      "name": "Payment",
      "type": "event"
    },
    {
      "anonymous": false,
      "inputs": [
        {
          "indexed": false,
          "internalType": "string",
          "name": "_message",
          "type": "string"
        },
        {
          "indexed": false,
          "internalType": "string",
          "name": "trackingNo",
          "type": "string"
        },
        {
          "indexed": false,
          "internalType": "int256[]",
          "name": "_locationData",
          "type": "int256[]"
        },
        {
          "indexed": false,
          "internalType": "uint256",
          "name": "_timeStamp",
          "type": "uint256"
        },
        {
          "indexed": false,
          "internalType": "address",
          "name": "_sender",
          "type": "address"
        }
      ],
      "name": "Success",
      "type": "event"
    },
    {
      "stateMutability": "payable",
      "type": "receive",
      "payable": true
    },
    {
      "inputs": [
        {
          "internalType": "string",
          "name": "_name",
          "type": "string"
        },
        {
          "internalType": "uint256",
          "name": "_phoneNo",
          "type": "uint256"
        },
        {
          "internalType": "string",
          "name": "_cityState",
          "type": "string"
        },
        {
          "internalType": "string",
          "name": "_country",
          "type": "string"
        }
      ],
      "name": "addSupplier",
      "outputs": [
        {
          "internalType": "bool",
          "name": "",
          "type": "bool"
        }
      ],
      "stateMutability": "nonpayable",
      "type": "function"
    },
    {
      "inputs": [
        {
          "internalType": "address",
          "name": "_supplier",
          "type": "address"
        }
      ],
      "name": "deleteSupplier",
      "outputs": [
        {
          "internalType": "bool",
          "name": "",
          "type": "bool"
        }
      ],
      "stateMutability": "nonpayable",
      "type": "function"
    },
    {
      "inputs": [
        {
          "internalType": "address",
          "name": "_supplier",
          "type": "address"
        }
      ],
      "name": "findSupplier",
      "outputs": [
        {
          "internalType": "string",
          "name": "",
          "type": "string"
        },
        {
          "internalType": "uint256",
          "name": "",
          "type": "uint256"
        },
        {
          "internalType": "string",
          "name": "",
          "type": "string"
        },
        {
          "internalType": "string",
          "name": "",
          "type": "string"
        },
        {
          "internalType": "uint256",
          "name": "",
          "type": "uint256"
        }
      ],
      "stateMutability": "view",
      "type": "function",
      "constant": true
    },
    {
      "inputs": [],
      "name": "allSuppliers",
      "outputs": [
        {
          "internalType": "address[]",
          "name": "",
          "type": "address[]"
        }
      ],
      "stateMutability": "view",
      "type": "function",
      "constant": true
    },
    {
      "inputs": [
        {
          "internalType": "int256[]",
          "name": "_location",
          "type": "int256[]"
        },
        {
          "internalType": "uint256",
          "name": "_leadTime",
          "type": "uint256"
        },
        {
          "internalType": "uint256",
          "name": "_payment",
          "type": "uint256"
        }
      ],
      "name": "setContractParameters",
      "outputs": [
        {
          "internalType": "bool",
          "name": "",
          "type": "bool"
        }
      ],
      "stateMutability": "nonpayable",
      "type": "function"
    },
    {
      "inputs": [],
      "name": "getContractParameters",
      "outputs": [
        {
          "internalType": "int256[]",
          "name": "",
          "type": "int256[]"
        },
        {
          "internalType": "uint256",
          "name": "",
          "type": "uint256"
        },
        {
          "internalType": "uint256",
          "name": "",
          "type": "uint256"
        }
      ],
      "stateMutability": "view",
      "type": "function",
      "constant": true
    },
    {
      "inputs": [
        {
          "internalType": "string",
          "name": "trackingNo",
          "type": "string"
        },
        {
          "internalType": "string",
          "name": "_item",
          "type": "string"
        },
        {
          "internalType": "uint256",
          "name": "_quantity",
          "type": "uint256"
        },
        {
          "internalType": "int256[]",
          "name": "_locationData",
          "type": "int256[]"
        }
      ],
      "name": "sendShipment",
      "outputs": [
        {
          "internalType": "bool",
          "name": "",
          "type": "bool"
        }
      ],
      "stateMutability": "nonpayable",
      "type": "function"
    },
    {
      "inputs": [
        {
          "internalType": "string",
          "name": "trackingNo",
          "type": "string"
        },
        {
          "internalType": "string",
          "name": "_item",
          "type": "string"
        },
        {
          "internalType": "uint256",
          "name": "_quantity",
          "type": "uint256"
        },
        {
          "internalType": "int256[]",
          "name": "_locationData",
          "type": "int256[]"
        }
      ],
      "name": "receiveShipment",
      "outputs": [
        {
          "internalType": "bool",
          "name": "",
          "type": "bool"
        }
      ],
      "stateMutability": "nonpayable",
      "type": "function"
    },
    {
      "inputs": [
        {
          "internalType": "string",
          "name": "trackingNo",
          "type": "string"
        }
      ],
      "name": "deleteShipment",
      "outputs": [
        {
          "internalType": "bool",
          "name": "",
          "type": "bool"
        }
      ],
      "stateMutability": "nonpayable",
      "type": "function"
    },
    {
      "inputs": [
        {
          "internalType": "string",
          "name": "trackingNo",
          "type": "string"
        }
      ],
      "name": "checkShipment",
      "outputs": [
        {
          "internalType": "string",
          "name": "",
          "type": "string"
        },
        {
          "internalType": "uint256",
          "name": "",
          "type": "uint256"
        },
        {
          "internalType": "int256[]",
          "name": "",
          "type": "int256[]"
        },
        {
          "internalType": "uint256",
          "name": "",
          "type": "uint256"
        },
        {
          "internalType": "bool",
          "name": "",
          "type": "bool"
        },
        {
          "internalType": "address",
          "name": "",
          "type": "address"
        }
      ],
      "stateMutability": "view",
      "type": "function",
      "constant": true
    },
    {
      "inputs": [
        {
          "internalType": "address",
          "name": "_sender",
          "type": "address"
        }
      ],
      "name": "checkSuccess",
      "outputs": [
        {
          "internalType": "uint256",
          "name": "",
          "type": "uint256"
        },
        {
          "internalType": "uint256",
          "name": "",
          "type": "uint256"
        }
      ],
      "stateMutability": "view",
      "type": "function",
      "constant": true
    },
    {
      "inputs": [
        {
          "internalType": "address",
          "name": "_sender",
          "type": "address"
        }
      ],
      "name": "calculateReputation",
      "outputs": [
        {
          "internalType": "uint256",
          "name": "",
          "type": "uint256"
        }
      ],
      "stateMutability": "view",
      "type": "function",
      "constant": true
    },
    {
      "inputs": [],
      "name": "showAdmin",
      "outputs": [
        {
          "internalType": "address",
          "name": "",
          "type": "address"
        }
      ],
      "stateMutability": "view",
      "type": "function",
      "constant": true
    },
    {
      "inputs": [],
      "name": "balanceOfContract",
      "outputs": [
        {
          "internalType": "uint256",
          "name": "",
          "type": "uint256"
        }
      ],
      "stateMutability": "view",
      "type": "function",
      "constant": true
    }
  ],
  "bytecode": "0x608060405234801561001057600080fd5b50336000806101000a81548173ffffffffffffffffffffffffffffffffffffffff021916908373ffffffffffffffffffffffffffffffffffffffff1602179055506132c2806100606000396000f3fe6080604052600436106100e15760003560e01c806388a679891161007f578063bfacd9ed11610059578063bfacd9ed14610b3d578063df80093614610bb7578063e6c7c45614610dcc578063e79bc33b14610df75761018d565b806388a6798914610687578063a2afc24314610778578063b36c37df1461098d5761018d565b80633a2115cf116100bb5780633a2115cf146102cf57806342c00ce9146104e75780634f0e86561461055057806356992fe2146105a75761018d565b806327c06fd5146101925780632ab9226d146101f757806331742fa7146102635761018d565b3661018d576000809054906101000a900473ffffffffffffffffffffffffffffffffffffffff1673ffffffffffffffffffffffffffffffffffffffff163373ffffffffffffffffffffffffffffffffffffffff161461018b576040517f08c379a000000000000000000000000000000000000000000000000000000000815260040180806020018281038252602681526020018061323e6026913960400191505060405180910390fd5b005b600080fd5b34801561019e57600080fd5b506101e1600480360360208110156101b557600080fd5b81019080803573ffffffffffffffffffffffffffffffffffffffff169060200190929190505050610fcc565b6040518082815260200191505060405180910390f35b34801561020357600080fd5b5061020c6110b0565b6040518080602001828103825283818151815260200191508051906020019060200280838360005b8381101561024f578082015181840152602081019050610234565b505050509050019250505060405180910390f35b34801561026f57600080fd5b506102b26004803603602081101561028657600080fd5b81019080803573ffffffffffffffffffffffffffffffffffffffff16906020019092919050505061113e565b604051808381526020018281526020019250505060405180910390f35b3480156102db57600080fd5b506104cd600480360360808110156102f257600080fd5b810190808035906020019064010000000081111561030f57600080fd5b82018360208201111561032157600080fd5b8035906020019184600183028401116401000000008311171561034357600080fd5b91908080601f016020809104026020016040519081016040528093929190818152602001838380828437600081840152601f19601f82011690508083019250505050505050919291929080359060200190929190803590602001906401000000008111156103b057600080fd5b8201836020820111156103c257600080fd5b803590602001918460018302840111640100000000831117156103e457600080fd5b91908080601f016020809104026020016040519081016040528093929190818152602001838380828437600081840152601f19601f8201169050808301925050505050505091929192908035906020019064010000000081111561044757600080fd5b82018360208201111561045957600080fd5b8035906020019184600183028401116401000000008311171561047b57600080fd5b91908080601f016020809104026020016040519081016040528093929190818152602001838380828437600081840152601f19601f8201169050808301925050505050505091929192905050506111ca565b604051808215151515815260200191505060405180910390f35b3480156104f357600080fd5b506105366004803603602081101561050a57600080fd5b81019080803573ffffffffffffffffffffffffffffffffffffffff16906020019092919050505061144c565b604051808215151515815260200191505060405180910390f35b34801561055c57600080fd5b50610565611701565b604051808273ffffffffffffffffffffffffffffffffffffffff1673ffffffffffffffffffffffffffffffffffffffff16815260200191505060405180910390f35b3480156105b357600080fd5b5061066d600480360360208110156105ca57600080fd5b81019080803590602001906401000000008111156105e757600080fd5b8201836020820111156105f957600080fd5b8035906020019184600183028401116401000000008311171561061b57600080fd5b91908080601f016020809104026020016040519081016040528093929190818152602001838380828437600081840152601f19601f82011690508083019250505050505050919291929050505061172a565b604051808215151515815260200191505060405180910390f35b34801561069357600080fd5b5061075e600480360360608110156106aa57600080fd5b81019080803590602001906401000000008111156106c757600080fd5b8201836020820111156106d957600080fd5b803590602001918460208302840111640100000000831117156106fb57600080fd5b919080806020026020016040519081016040528093929190818152602001838360200280828437600081840152601f19601f82011690508083019250505050505050919291929080359060200190929190803590602001909291905050506118b1565b604051808215151515815260200191505060405180910390f35b34801561078457600080fd5b506109736004803603608081101561079b57600080fd5b81019080803590602001906401000000008111156107b857600080fd5b8201836020820111156107ca57600080fd5b803590602001918460018302840111640100000000831117156107ec57600080fd5b91908080601f016020809104026020016040519081016040528093929190818152602001838380828437600081840152601f19601f8201169050808301925050505050505091929192908035906020019064010000000081111561084f57600080fd5b82018360208201111561086157600080fd5b8035906020019184600183028401116401000000008311171561088357600080fd5b91908080601f016020809104026020016040519081016040528093929190818152602001838380828437600081840152601f19601f82011690508083019250505050505050919291929080359060200190929190803590602001906401000000008111156108f057600080fd5b82018360208201111561090257600080fd5b8035906020019184602083028401116401000000008311171561092457600080fd5b919080806020026020016040519081016040528093929190818152602001838360200280828437600081840152601f19601f820116905080830192505050505050509192919290505050611988565b604051808215151515815260200191505060405180910390f35b34801561099957600080fd5b506109dc600480360360208110156109b057600080fd5b81019080803573ffffffffffffffffffffffffffffffffffffffff16906020019092919050505061238b565b60405180806020018681526020018060200180602001858152602001848103845289818151815260200191508051906020019080838360005b83811015610a30578082015181840152602081019050610a15565b50505050905090810190601f168015610a5d5780820380516001836020036101000a031916815260200191505b50848103835287818151815260200191508051906020019080838360005b83811015610a96578082015181840152602081019050610a7b565b50505050905090810190601f168015610ac35780820380516001836020036101000a031916815260200191505b50848103825286818151815260200191508051906020019080838360005b83811015610afc578082015181840152602081019050610ae1565b50505050905090810190601f168015610b295780820380516001836020036101000a031916815260200191505b509850505050505050505060405180910390f35b348015610b4957600080fd5b50610b526126c7565b6040518080602001848152602001838152602001828103825285818151815260200191508051906020019060200280838360005b83811015610ba1578082015181840152602081019050610b86565b5050505090500194505050505060405180910390f35b348015610bc357600080fd5b50610db260048036036080811015610bda57600080fd5b8101908080359060200190640100000000811115610bf757600080fd5b820183602082011115610c0957600080fd5b80359060200191846001830284011164010000000083111715610c2b57600080fd5b91908080601f016020809104026020016040519081016040528093929190818152602001838380828437600081840152601f19601f82011690508083019250505050505050919291929080359060200190640100000000811115610c8e57600080fd5b820183602082011115610ca057600080fd5b80359060200191846001830284011164010000000083111715610cc257600080fd5b91908080601f016020809104026020016040519081016040528093929190818152602001838380828437600081840152601f19601f8201169050808301925050505050505091929192908035906020019092919080359060200190640100000000811115610d2f57600080fd5b820183602082011115610d4157600080fd5b80359060200191846020830284011164010000000083111715610d6357600080fd5b919080806020026020016040519081016040528093929190818152602001838360200280828437600081840152601f19601f820116905080830192505050505050509192919290505050612731565b604051808215151515815260200191505060405180910390f35b348015610dd857600080fd5b50610de1612be2565b6040518082815260200191505060405180910390f35b348015610e0357600080fd5b50610ebd60048036036020811015610e1a57600080fd5b8101908080359060200190640100000000811115610e3757600080fd5b820183602082011115610e4957600080fd5b80359060200191846001830284011164010000000083111715610e6b57600080fd5b91908080601f016020809104026020016040519081016040528093929190818152602001838380828437600081840152601f19601f820116905080830192505050505050509192919290505050612bea565b604051808060200187815260200180602001868152602001851515151581526020018473ffffffffffffffffffffffffffffffffffffffff1673ffffffffffffffffffffffffffffffffffffffff168152602001838103835289818151815260200191508051906020019080838360005b83811015610f49578082015181840152602081019050610f2e565b50505050905090810190601f168015610f765780820380516001836020036101000a031916815260200191505b50838103825287818151815260200191508051906020019060200280838360005b83811015610fb2578082015181840152602081019050610f97565b505050509050019850505050505050505060405180910390f35b600080600660008473ffffffffffffffffffffffffffffffffffffffff1673ffffffffffffffffffffffffffffffffffffffff16815260200190815260200160002054146110a657600660008373ffffffffffffffffffffffffffffffffffffffff1673ffffffffffffffffffffffffffffffffffffffff16815260200190815260200160002054600760008473ffffffffffffffffffffffffffffffffffffffff1673ffffffffffffffffffffffffffffffffffffffff168152602001908152602001600020546064028161109e57fe5b0490506110ab565b600090505b919050565b6060600980548060200260200160405190810160405280929190818152602001828054801561113457602002820191906000526020600020905b8160009054906101000a900473ffffffffffffffffffffffffffffffffffffffff1673ffffffffffffffffffffffffffffffffffffffff16815260200190600101908083116110ea575b5050505050905090565b600080600760008473ffffffffffffffffffffffffffffffffffffffff1673ffffffffffffffffffffffffffffffffffffffff16815260200190815260200160002054600660008573ffffffffffffffffffffffffffffffffffffffff1673ffffffffffffffffffffffffffffffffffffffff1681526020019081526020016000205491509150915091565b600080600860003373ffffffffffffffffffffffffffffffffffffffff1673ffffffffffffffffffffffffffffffffffffffff16815260200190815260200160002060000180546001816001161561010002031660029004905014801561123357506000855114155b1561143f5784600860003373ffffffffffffffffffffffffffffffffffffffff1673ffffffffffffffffffffffffffffffffffffffff168152602001908152602001600020600001908051906020019061128e9291906130bd565b5083600860003373ffffffffffffffffffffffffffffffffffffffff1673ffffffffffffffffffffffffffffffffffffffff1681526020019081526020016000206001018190555082600860003373ffffffffffffffffffffffffffffffffffffffff1673ffffffffffffffffffffffffffffffffffffffff168152602001908152602001600020600201908051906020019061132c9291906130bd565b5081600860003373ffffffffffffffffffffffffffffffffffffffff1673ffffffffffffffffffffffffffffffffffffffff16815260200190815260200160002060030190805190602001906113839291906130bd565b5061138d33610fcc565b600860003373ffffffffffffffffffffffffffffffffffffffff1673ffffffffffffffffffffffffffffffffffffffff168152602001908152602001600020600401819055506009339080600181540180825580915050600190039060005260206000200160009091909190916101000a81548173ffffffffffffffffffffffffffffffffffffffff021916908373ffffffffffffffffffffffffffffffffffffffff16021790555060019050611444565b600190505b949350505050565b60008060009054906101000a900473ffffffffffffffffffffffffffffffffffffffff1673ffffffffffffffffffffffffffffffffffffffff163373ffffffffffffffffffffffffffffffffffffffff16146114f3576040517f08c379a000000000000000000000000000000000000000000000000000000000815260040180806020018281038252602681526020018061323e6026913960400191505060405180910390fd5b600860008373ffffffffffffffffffffffffffffffffffffffff1673ffffffffffffffffffffffffffffffffffffffff16815260200190815260200160002060008082016000611543919061313d565b600182016000905560028201600061155b919061313d565b60038201600061156b919061313d565b6004820160009055505060008090505b6009805490508110156116f7578273ffffffffffffffffffffffffffffffffffffffff16600982815481106115ac57fe5b9060005260206000200160009054906101000a900473ffffffffffffffffffffffffffffffffffffffff1673ffffffffffffffffffffffffffffffffffffffff1614156116ea5760008190505b6001600980549050038110156116a6576009600182018154811061161957fe5b9060005260206000200160009054906101000a900473ffffffffffffffffffffffffffffffffffffffff166009828154811061165157fe5b9060005260206000200160006101000a81548173ffffffffffffffffffffffffffffffffffffffff021916908373ffffffffffffffffffffffffffffffffffffffff16021790555080806001019150506115f9565b506009600160098054905003815481106116bc57fe5b9060005260206000200160006101000a81549073ffffffffffffffffffffffffffffffffffffffff02191690555b808060010191505061157b565b5060019050919050565b60008060009054906101000a900473ffffffffffffffffffffffffffffffffffffffff16905090565b60008060009054906101000a900473ffffffffffffffffffffffffffffffffffffffff1673ffffffffffffffffffffffffffffffffffffffff163373ffffffffffffffffffffffffffffffffffffffff16146117d1576040517f08c379a000000000000000000000000000000000000000000000000000000000815260040180806020018281038252602681526020018061323e6026913960400191505060405180910390fd5b6004826040518082805190602001908083835b6020831061180757805182526020820191506020810190506020830392506117e4565b6001836020036101000a03801982511681845116808217855250505050505090500191505090815260200160405180910390206000808201600061184b919061313d565b60018201600090556002820160006118639190613185565b60038201600090556004820160006101000a81549073ffffffffffffffffffffffffffffffffffffffff02191690556004820160146101000a81549060ff0219169055505060019050919050565b60008060009054906101000a900473ffffffffffffffffffffffffffffffffffffffff1673ffffffffffffffffffffffffffffffffffffffff163373ffffffffffffffffffffffffffffffffffffffff1614611958576040517f08c379a000000000000000000000000000000000000000000000000000000000815260040180806020018281038252602681526020018061323e6026913960400191505060405180910390fd5b836001908051906020019061196e9291906131a6565b508260028190555081600381905550600190509392505050565b600083805190602001206004866040518082805190602001908083835b602083106119c857805182526020820191506020810190506020830392506119a5565b6001836020036101000a03801982511681845116808217855250505050505090500191505090815260200160405180910390206000016040518082805460018160011615610100020316600290048015611a595780601f10611a37576101008083540402835291820191611a59565b820191906000526020600020905b815481529060010190602001808311611a45575b50509150506040518091039020148015611ade5750826004866040518082805190602001908083835b60208310611aa55780518252602082019150602081019050602083039250611a82565b6001836020036101000a038019825116818451168082178552505050505050905001915050908152602001604051809103902060010154145b8015611b6157506004856040518082805190602001908083835b60208310611b1b5780518252602082019150602081019050602083039250611af8565b6001836020036101000a038019825116818451168082178552505050505050905001915050908152602001604051809103902060040160149054906101000a900460ff16155b15612316576001600760006004886040518082805190602001908083835b60208310611ba25780518252602082019150602081019050602083039250611b7f565b6001836020036101000a038019825116818451168082178552505050505050905001915050908152602001604051809103902060040160009054906101000a900473ffffffffffffffffffffffffffffffffffffffff1673ffffffffffffffffffffffffffffffffffffffff1673ffffffffffffffffffffffffffffffffffffffff168152602001908152602001600020600082825401925050819055507f168fbd99b56bdd6eab5e221a0a4fef44c47d49bcad3a1027803e504e09d7a14585834233604051808060200180602001806020018681526020018573ffffffffffffffffffffffffffffffffffffffff1673ffffffffffffffffffffffffffffffffffffffff1681526020018481038452600d8152602001807f4974656d20726563656976656400000000000000000000000000000000000000815250602001848103835288818151815260200191508051906020019080838360005b83811015611d19578082015181840152602081019050611cfe565b50505050905090810190601f168015611d465780820380516001836020036101000a031916815260200191505b50848103825287818151815260200191508051906020019060200280838360005b83811015611d82578082015181840152602081019050611d67565b5050505090500197505050505050505060405180910390a16002546004866040518082805190602001908083835b60208310611dd35780518252602082019150602081019050602083039250611db0565b6001836020036101000a038019825116818451168082178552505050505050905001915050908152602001604051809103902060030154014211158015611e4557506001600081548110611e2357fe5b906000526020600020015482600081518110611e3b57fe5b6020026020010151145b8015611e7b575060018081548110611e5957fe5b906000526020600020015482600181518110611e7157fe5b6020026020010151145b156122c257611f186004866040518082805190602001908083835b60208310611eb95780518252602082019150602081019050602083039250611e96565b6001836020036101000a038019825116818451168082178552505050505050905001915050908152602001604051809103902060040160009054906101000a900473ffffffffffffffffffffffffffffffffffffffff16600354612fb4565b156121325760016004866040518082805190602001908083835b60208310611f555780518252602082019150602081019050602083039250611f32565b6001836020036101000a038019825116818451168082178552505050505050905001915050908152602001604051809103902060040160146101000a81548160ff0219169083151502179055507f26eb4a415baf730c62c6011b03653f5b8960baf7ad391bd18725e6caa4bfa4c96000809054906101000a900473ffffffffffffffffffffffffffffffffffffffff166004876040518082805190602001908083835b6020831061201b5780518252602082019150602081019050602083039250611ff8565b6001836020036101000a038019825116818451168082178552505050505050905001915050908152602001604051809103902060040160009054906101000a900473ffffffffffffffffffffffffffffffffffffffff1660035460405180806020018573ffffffffffffffffffffffffffffffffffffffff1673ffffffffffffffffffffffffffffffffffffffff1681526020018473ffffffffffffffffffffffffffffffffffffffff1673ffffffffffffffffffffffffffffffffffffffff168152602001838152602001828103825260128152602001807f5061796d656e74207375636365737366756c000000000000000000000000000081525060200194505050505060405180910390a160019050612383565b7f26eb4a415baf730c62c6011b03653f5b8960baf7ad391bd18725e6caa4bfa4c96000809054906101000a900473ffffffffffffffffffffffffffffffffffffffff166004876040518082805190602001908083835b602083106121ab5780518252602082019150602081019050602083039250612188565b6001836020036101000a038019825116818451168082178552505050505050905001915050908152602001604051809103902060040160009054906101000a900473ffffffffffffffffffffffffffffffffffffffff1660035460405180806020018573ffffffffffffffffffffffffffffffffffffffff1673ffffffffffffffffffffffffffffffffffffffff1681526020018473ffffffffffffffffffffffffffffffffffffffff1673ffffffffffffffffffffffffffffffffffffffff1681526020018381526020018281038252600e8152602001807f5061796d656e74206661696c656400000000000000000000000000000000000081525060200194505050505060405180910390a160009050612383565b7ffd5de27667e5407df5be0b6efb7f86ae8c40433040399a5e4d36a46ccc50638d6040518080602001828103825260298152602001806132646029913960400191505060405180910390a160009050612383565b7ffd5de27667e5407df5be0b6efb7f86ae8c40433040399a5e4d36a46ccc50638d6040518080602001828103825260168152602001807f4572726f7220696e206974656d2f7175616e746974790000000000000000000081525060200191505060405180910390a1600090505b949350505050565b606060006060806000600860008773ffffffffffffffffffffffffffffffffffffffff1673ffffffffffffffffffffffffffffffffffffffff168152602001908152602001600020600001600860008873ffffffffffffffffffffffffffffffffffffffff1673ffffffffffffffffffffffffffffffffffffffff16815260200190815260200160002060010154600860008973ffffffffffffffffffffffffffffffffffffffff1673ffffffffffffffffffffffffffffffffffffffff168152602001908152602001600020600201600860008a73ffffffffffffffffffffffffffffffffffffffff1673ffffffffffffffffffffffffffffffffffffffff168152602001908152602001600020600301600860008b73ffffffffffffffffffffffffffffffffffffffff1673ffffffffffffffffffffffffffffffffffffffff16815260200190815260200160002060040154848054600181600116156101000203166002900480601f0160208091040260200160405190810160405280929190818152602001828054600181600116156101000203166002900480156125755780601f1061254a57610100808354040283529160200191612575565b820191906000526020600020905b81548152906001019060200180831161255857829003601f168201915b50505050509450828054600181600116156101000203166002900480601f0160208091040260200160405190810160405280929190818152602001828054600181600116156101000203166002900480156126115780601f106125e657610100808354040283529160200191612611565b820191906000526020600020905b8154815290600101906020018083116125f457829003601f168201915b50505050509250818054600181600116156101000203166002900480601f0160208091040260200160405190810160405280929190818152602001828054600181600116156101000203166002900480156126ad5780601f10612682576101008083540402835291602001916126ad565b820191906000526020600020905b81548152906001019060200180831161269057829003601f168201915b505050505091509450945094509450945091939590929450565b606060008060016002546003548280548060200260200160405190810160405280929190818152602001828054801561271f57602002820191906000526020600020905b81548152602001906001019080831161270b575b50505050509250925092509250909192565b6000836004866040518082805190602001908083835b6020831061276a5780518252602082019150602081019050602083039250612747565b6001836020036101000a038019825116818451168082178552505050505050905001915050908152602001604051809103902060000190805190602001906127b39291906130bd565b50826004866040518082805190602001908083835b602083106127eb57805182526020820191506020810190506020830392506127c8565b6001836020036101000a038019825116818451168082178552505050505050905001915050908152602001604051809103902060010181905550816004866040518082805190602001908083835b6020831061285c5780518252602082019150602081019050602083039250612839565b6001836020036101000a038019825116818451168082178552505050505050905001915050908152602001604051809103902060020190805190602001906128a59291906131a6565b50426004866040518082805190602001908083835b602083106128dd57805182526020820191506020810190506020830392506128ba565b6001836020036101000a038019825116818451168082178552505050505050905001915050908152602001604051809103902060030181905550336004866040518082805190602001908083835b6020831061294e578051825260208201915060208101905060208303925061292b565b6001836020036101000a038019825116818451168082178552505050505050905001915050908152602001604051809103902060040160006101000a81548173ffffffffffffffffffffffffffffffffffffffff021916908373ffffffffffffffffffffffffffffffffffffffff1602179055506001600660003373ffffffffffffffffffffffffffffffffffffffff1673ffffffffffffffffffffffffffffffffffffffff168152602001908152602001600020600082825401925050819055507f168fbd99b56bdd6eab5e221a0a4fef44c47d49bcad3a1027803e504e09d7a14585836004886040518082805190602001908083835b60208310612a695780518252602082019150602081019050602083039250612a46565b6001836020036101000a03801982511681845116808217855250505050505090500191505090815260200160405180910390206003015433604051808060200180602001806020018681526020018573ffffffffffffffffffffffffffffffffffffffff1673ffffffffffffffffffffffffffffffffffffffff1681526020018481038452600c8152602001807f4974656d20536869707065640000000000000000000000000000000000000000815250602001848103835288818151815260200191508051906020019080838360005b83811015612b55578082015181840152602081019050612b3a565b50505050905090810190601f168015612b825780820380516001836020036101000a031916815260200191505b50848103825287818151815260200191508051906020019060200280838360005b83811015612bbe578082015181840152602081019050612ba3565b5050505090500197505050505050505060405180910390a160019050949350505050565b600047905090565b60606000606060008060006004876040518082805190602001908083835b60208310612c2b5780518252602082019150602081019050602083039250612c08565b6001836020036101000a03801982511681845116808217855250505050505090500191505090815260200160405180910390206000016004886040518082805190602001908083835b60208310612c975780518252602082019150602081019050602083039250612c74565b6001836020036101000a0380198251168184511680821785525050505050509050019150509081526020016040518091039020600101546004896040518082805190602001908083835b60208310612d045780518252602082019150602081019050602083039250612ce1565b6001836020036101000a038019825116818451168082178552505050505050905001915050908152602001604051809103902060020160048a6040518082805190602001908083835b60208310612d705780518252602082019150602081019050602083039250612d4d565b6001836020036101000a03801982511681845116808217855250505050505090500191505090815260200160405180910390206003015460048b6040518082805190602001908083835b60208310612ddd5780518252602082019150602081019050602083039250612dba565b6001836020036101000a038019825116818451168082178552505050505050905001915050908152602001604051809103902060040160149054906101000a900460ff1660048c6040518082805190602001908083835b60208310612e575780518252602082019150602081019050602083039250612e34565b6001836020036101000a038019825116818451168082178552505050505050905001915050908152602001604051809103902060040160009054906101000a900473ffffffffffffffffffffffffffffffffffffffff16858054600181600116156101000203166002900480601f016020809104026020016040519081016040528092919081815260200182805460018160011615610100020316600290048015612f435780601f10612f1857610100808354040283529160200191612f43565b820191906000526020600020905b815481529060010190602001808311612f2657829003601f168201915b5050505050955083805480602002602001604051908101604052809291908181526020018280548015612f9557602002820191906000526020600020905b815481526020019060010190808311612f81575b5050505050935080905095509550955095509550955091939550919395565b60008060009054906101000a900473ffffffffffffffffffffffffffffffffffffffff1673ffffffffffffffffffffffffffffffffffffffff163373ffffffffffffffffffffffffffffffffffffffff161461305b576040517f08c379a000000000000000000000000000000000000000000000000000000000815260040180806020018281038252602681526020018061323e6026913960400191505060405180910390fd5b8147106130b2578273ffffffffffffffffffffffffffffffffffffffff166108fc839081150290604051600060405180830381858888f193505050501580156130a8573d6000803e3d6000fd5b50600190506130b7565b600090505b92915050565b828054600181600116156101000203166002900490600052602060002090601f016020900481019282601f106130fe57805160ff191683800117855561312c565b8280016001018555821561312c579182015b8281111561312b578251825591602001919060010190613110565b5b50905061313991906131f3565b5090565b50805460018160011615610100020316600290046000825580601f106131635750613182565b601f01602090049060005260206000209081019061318191906131f3565b5b50565b50805460008255906000526020600020908101906131a39190613218565b50565b8280548282559060005260206000209081019282156131e2579160200282015b828111156131e15782518255916020019190600101906131c6565b5b5090506131ef9190613218565b5090565b61321591905b808211156132115760008160009055506001016131f9565b5090565b90565b61323a91905b8082111561323657600081600090555060010161321e565b5090565b9056fe596f7520617265206e6f7420617574686f72697a656420666f72207468697320616374696f6e4372697465726961206e6f74206d65742068656e6365207472616e73616374696f6e206661696c6564a264697066735822122045d173c1b447fa5f2ab07cf2ddf1699ba1ff80ca564700939ade4e9a5ba65f0564736f6c63430006000033",
  "source": "//SPDX-License-Identifier:UNLICENSED\npragma solidity ^0.6.0;\ncontract Tracking\n{\n    address admin;\n    int [] contractLocation;//for latitude and longitude\n    uint contractLeadTime;//in seconds\n    uint contractPayment;//in tokens\n    struct Shipment\n    {\n        string item;\n        uint quantity;\n        int[] locationData;\n        uint timeStamp;\n        address payable sender;\n        bool paid;\n    }\n    mapping(string=>Shipment)shipments;\n    mapping(address=>uint) balences;\n    mapping(address=>uint) totalShipped;\n    mapping(address=>uint) successShipped;\n\n    //Supplier  \n    struct Supplier\n    {\n        string name;\n        uint phoneNo;\n        string cityState;\n        string country;\n        uint reputation;\n    }\n    mapping(address=>Supplier) suppliers;\n    address[] suppliersByAddress;\n    //events to display messages\n    event Success(string _message,string trackingNo,int[] _locationData,uint _timeStamp,address _sender);\n    event Payment(string _message,address _from,address _to,uint _amount);\n    event Failure(string _message);\n\n    constructor() public\n    {\n        admin=msg.sender;\n        \n    }\n\n    modifier onlyAdmin()\n    {\n        require(msg.sender==admin, \"You are not authorized for this action\");\n        _;\n    }\n\n\n    function addSupplier(string memory _name,uint _phoneNo,string memory _cityState,string memory _country) public returns(bool)\n    {\n        if(bytes(suppliers[msg.sender].name).length==0 && bytes(_name).length!=0)\n        {\n            suppliers[msg.sender].name=_name;\n            suppliers[msg.sender].phoneNo=_phoneNo;\n            suppliers[msg.sender].cityState=_cityState;\n            suppliers[msg.sender].country=_country;\n            suppliers[msg.sender].reputation=calculateReputation(msg.sender);\n            suppliersByAddress.push(msg.sender);\n            return true;\n        }\n        else\n        {\n            return true;\n        }\n    }\n\n    function deleteSupplier(address _supplier) onlyAdmin public returns(bool)\n    {\n        delete suppliers[_supplier];\n        for (uint i = 0; i < suppliersByAddress.length; i++) \n        {\n            if (suppliersByAddress[i] == _supplier) \n            {\n            for (uint index = i; index < suppliersByAddress.length- 1; index++) \n            {\n            suppliersByAddress[index] =\n            suppliersByAddress[index + 1];\n            }\n            delete suppliersByAddress[suppliersByAddress.length-1];\n            \n        }\n        }\n        return true;\n    }\n\n    function findSupplier(address _supplier)public  view returns (string memory,uint,string memory,string memory,uint)\n    {\n        return(suppliers[_supplier].name,suppliers[_supplier].phoneNo,suppliers[_supplier].cityState,suppliers[_supplier].country,suppliers[_supplier].reputation);\n    }\n\n    function allSuppliers() public view returns (address[] memory) \n    {\n        return suppliersByAddress;\n    }\n    //payment\n    function sendPayment(address payable receiver,uint amount) onlyAdmin internal returns(bool)\n    {\n        if(address(this).balance>=amount)\n        {\n            receiver.transfer(amount);\n            return true;\n        }\n        else\n        {\n            return false;\n        }\n    }\n\n    function setContractParameters(int[] memory _location,uint _leadTime,uint _payment)onlyAdmin public returns (bool)\n    {\n        contractLocation=_location;\n        contractLeadTime=_leadTime;\n        contractPayment=_payment;\n        return true;\n    }\n    function getContractParameters() public view returns(int[] memory,uint ,uint )\n    {\n        return (contractLocation,contractLeadTime,contractPayment);\n    }\n    function sendShipment(string memory trackingNo,string memory _item,uint _quantity,int[] memory _locationData) public returns (bool)\n    {\n        shipments[trackingNo].item=_item;\n        shipments[trackingNo].quantity=_quantity;\n        shipments[trackingNo].locationData=_locationData;\n        shipments[trackingNo].timeStamp=block.timestamp;\n        shipments[trackingNo].sender=msg.sender;\n        totalShipped[msg.sender]+=1;\n        emit Success('Item Shipped',trackingNo,_locationData,shipments[trackingNo].timeStamp,msg.sender);\n        return true;\n    }\n\n    function receiveShipment(string memory trackingNo,string memory _item,uint _quantity,int[] memory _locationData)public  returns (bool)\n    {\n        // improve the logic\n        //more if and else for different cases......\n\n        if( keccak256(bytes( shipments[trackingNo].item))==keccak256(bytes(_item)) && shipments[trackingNo].quantity==_quantity && !(shipments[trackingNo].paid))\n        {\n            successShipped[shipments[trackingNo].sender]+=1;\n            emit Success('Item received',trackingNo,_locationData,block.timestamp,msg.sender);\n            if (block.timestamp<=shipments[trackingNo].timeStamp+contractLeadTime && _locationData[0]==contractLocation[0] && _locationData[1]==contractLocation[1])\n            {\n                if(sendPayment(shipments[trackingNo].sender,contractPayment))\n                {\n                    shipments[trackingNo].paid=true;\n                    emit Payment(\"Payment successful\",admin,shipments[trackingNo].sender,contractPayment);\n                    return true;\n                    \n                }\n                else\n                {\n                    emit Payment(\"Payment failed\",admin,shipments[trackingNo].sender,contractPayment);\n                    return false;\n                }\n            }\n            \n            else\n            {\n                emit Failure(\"Criteria not met hence transaction failed\");\n                return false;\n            }\n        }\n        else\n        {\n            emit Failure('Error in item/quantity');\n            return false;\n        }\n    }\n\n    function deleteShipment(string memory trackingNo) onlyAdmin public returns(bool)\n    {\n        delete shipments[trackingNo];\n        return true;\n    }\n\n    function checkShipment(string memory trackingNo) public view returns(string memory,uint,int[] memory,uint,bool,address)\n    {\n        return(shipments[trackingNo].item,shipments[trackingNo].quantity,shipments[trackingNo].locationData,shipments[trackingNo].timeStamp,shipments[trackingNo].paid,shipments[trackingNo].sender);\n    }\n\n    function checkSuccess(address _sender) public view returns(uint,uint)\n    {\n        return (successShipped[_sender],totalShipped[_sender]);\n    }\n\n    function calculateReputation(address _sender) public view returns(uint)\n    {\n        if(totalShipped[_sender]!=0)\n        {\n            return(100*successShipped[_sender]/totalShipped[_sender]);\n        }\n        else\n        {\n            return 0;\n        }\n    }\n    function showAdmin() public view returns (address)\n    {\n        return admin;\n    }\n\n    receive() onlyAdmin external payable{}\n\n    function balanceOfContract() public view returns (uint)\n    {\n        return (address(this).balance);\n    }\n}\n",
  "sourcePath": "/home/kislay/WORKSPACE/Supply-Chain-Management/contracts/Tracking.sol",
  "compiler": {
    "name": "solc",
    "version": "0.6.0+commit.26b70077.Emscripten.clang"
  },
  "schemaVersion": "3.2.5",
  "updatedAt": "2020-11-07T05:41:58.138Z",
  "networkType": "ethereum",
  "devdoc": {
    "methods": {}
  },
  "userdoc": {
    "methods": {}
  }
}